:100000000EC01DC063C01BC01AC019C018C017C0E5
:1000100016C015C014C013C012C011C010C01124E6
:100020001FBECFE5D2E0DEBFCDBF20E0A0E6B0E04E
:1000300001C01D92A536B207E1F702D096C0E0CF0D
:100040008FEF87BB74D0C0E0D1E08C2F79D01DD06A
:10005000882329F01DD0C09AC81301C0C09ACF5F71
:10006000D8BB2FEF89E698E1215080409040E1F71E
:1000700000C0000018BA2FEF89E698E121508040B7
:100080009040E1F700C00000E0CF8091600008954B
:10009000809160008823E1F3F89480916100909151
:1000A000600091509093600090916000992361F0FE
:1000B00090E0E92FF0E0EF59FF4F218120839F5F0F
:1000C000209160009217A8F3789408951F920F92E0
:1000D0000FB60F9211242F933F938F939F93EF931B
:1000E000FF93B29919C027E390E82150F1F72CE271
:1000F000B29908949795C8F72A95F1F78091600016
:10010000843050F4E091600081E08E0F80936000B5
:10011000F0E0EF59FF4F9083FF91EF919F918F9106
:100120003F912F910F900FBE0F901F901895BA9886
:10013000C298B99AC19AAA9A8BB780628BBF089568
:10014000CF93DF93C19AF894C19808B2E3E0CCE270
:10015000DC2FDA95F1F780FB01F8E695879508BA70
:0E016000B9F77894DF91CF910895F894FFCF0E
:00000001FF
