:100000000AC01CC03DC01AC019C018C017C016C015
:1000100015C014C013C011271FBFCFE5D0E0DEBF4D
:10002000CDBF20E0A0E4B0E0EEEBF2E402C03191FD
:100030003D93A434B207D9F702D03FC1E1CF43E0EA
:1000400045BB41E043BB42BB44E040BB4FEF41B93D
:1000500078941298B6D0109A4FE956E861E0415072
:1000600050406040E1F700C0000010984FE956E8AA
:1000700061E0415050406040E1F700C00000EBCF2C
:100080001F930F930FB70F9310E0F89478940F918C
:100090000FBF0F911F9118952F933F93CF93DF932D
:1000A000CDB7DEB7CA50D10B0FB7F894DEBF0FBF84
:1000B000CDBFC65FDF4F98838A93C950D040A82F29
:1000C000B92F4D915D916D917C9141175107610759
:1000D000710721F444E259ED6BE577E0972F862F05
:1000E000752F642F2DE133EF41E050E0A3D0CF5FB7
:1000F000DF4F2993399349935883C450D040462FFA
:10010000572F682F792F1F931F9381E48F9387EACE
:100110008F93972F862F752F642F64D00F910F9197
:100120000F910F91CB5FDF4F6993799389939883F8
:10013000C850D0404FEF4F934F9344EF4F934CEE46
:100140004F93CF5FDF4F6991799189919881C45026
:10015000D04048D00F910F910F910F91462F572FFC
:10016000682F792FCB5FDF4F89919991A991B88141
:10017000C850D040480F591F6A1F7B1F77FF04C02B
:100180004150510B610B7048C75FDF4FA991B88197
:10019000CA50D0404D935D936D937C93A350B04073
:1001A000842F952F9F77C65FDF4F0FB7F894DEBF80
:1001B0000FBFCDBFDF91CF913F912F9108956CDF9D
:1001C000089580E490E068DF0895482F592F60E09B
:1001D00070E0E0E4F0E04193519361937083E35069
:1001E000F0400895ADB7BEB7AD5FBF4F2F933F93BB
:1001F0002D913D914D915C91EE27FF27AA27BB27BA
:1002000008C0A20FB31FE41FF51F220F331F441FA6
:10021000551F969587957795679598F37040A9F740
:100220008050904091F76A2F7B2F8E2F9F2F3F9108
:100230002F910895052F97FB16F400950FD057FDC9
:1002400005D014D007FD02D046F408C05095409563
:10025000309521953F4F4F4F5F4F08959095809572
:10026000709561957F4F8F4F9F4F0895A1E21A2F90
:10027000AA1BBB1BEA2FFB2F0DC0AA1FBB1FEE1F23
:10028000FF1FA217B307E407F50720F0A21BB30B6B
:10029000E40BF50B661F771F881F991F1A9569F7E6
:1002A0006095709580959095262F372F482F592F60
:0E02B0006A2F7B2F8E2F9F2F0895F894FFCF7B
:0402BE00010000003B
:00000001FF
